:020000040800F2
:10000000000002205D660008D9580008DB5800088F
:10001000DD580008DF580008E15800080000000023
:1000200000000000000000000000000061850008E2
:10003000E35800080000000091850008E55800081A
:10004000AD660008AD660008AD660008AD66000844
:10005000AD660008AD660008AD660008AD66000834
:10006000AD660008AD660008AD660008AD66000824
:10007000AD660008AD660008AD660008AD66000814
:10008000AD660008AD660008ED580008AD660008D2
:10009000AD660008AD660008AD660008AD660008F4
:1000A000AD660008AD660008AD660008AD660008E4
:1000B000AD660008FD580008AD660008AD66000892
:1000C000AD660008AD660008AD660008AD660008C4
:1000D000AD6600080D590008AD660008AD66000861
:1000E000AD660008AD660008AD660008AD660008A4
:1000F000AD660008AD660008AD660008AD66000894
:10010000AD660008AD660008AD660008AD66000883
:10011000AD660008AD660008AD660008AD66000873
:10012000AD660008AD660008AD660008AD66000863
:10013000AD660008AD660008AD660008AD66000853
:10014000AD660008AD660008AD660008AD66000843
:10015000AD660008AD660008AD660008AD66000833
:10016000AD660008AD660008AD660008AD66000823
:10017000AD660008AD660008AD660008000000002E
:080180001D590008AD660008DE
:1001C00010B5054C237833B9044B13B10448AFF391
:1001D00000800123237010BDA00A00200000000051
:1001E00084B3030808B5034B1BB103490348AFF3BD
:1001F000008008BD00000000A40A002084B30308AA
:1002000081F0004102E000BF83F0004330B54FEAC7
:1002100041044FEA430594EA050F08BF90EA020F34
:100220001FBF54EA000C55EA020C7FEA645C7FEAC7
:10023000655C00F0E2804FEA5454D4EB5555B8BFEA
:100240006D420CDD2C4480EA020281EA030382EA5B
:10025000000083EA010180EA020281EA0303362DED
:1002600088BF30BD11F0004F4FEA01314FF4801CC0
:100270004CEA113102D0404261EB410113F0004FD2
:100280004FEA03334CEA133302D0524263EB430389
:1002900094EA050F00F0A780A4F10104D5F1200E27
:1002A0000DDB02FA0EFC22FA05F2801841F1000182
:1002B00003FA0EF2801843FA05F359410EE0A5F156
:1002C00020050EF1200E012A03FA0EFC28BF4CF087
:1002D000020C43FA05F3C01851EBE37101F000453D
:1002E00007D54FF0000EDCF1000C7EEB00006EEB4A
:1002F0000101B1F5801F1BD3B1F5001F0CD34908D4
:100300005FEA30004FEA3C0C04F101044FEA44522A
:1003100012F5800F80F09A80BCF1004F08BF5FEAB1
:10032000500C50F1000041EB045141EA050130BD91
:100330005FEA4C0C404141EB0101013C28BFB1F5A3
:10034000801FE9D291F0000F04BF01460020B1FAEE
:1003500081F308BF2033A3F10B03B3F120020CDAC1
:100360000C3208DD02F1140CC2F10C0201FA0CF09F
:1003700021FA02F10CE002F11402D8BFC2F1200C04
:1003800001FA02F120FA0CFCDCBF41EA0C019040BA
:10039000E41AA2BF01EB0451294330BD6FEA040403
:1003A0001F3C1CDA0C340EDC04F11404C4F12002EE
:1003B00020FA04F001FA02F340EA030021FA04F300
:1003C00045EA030130BDC4F10C04C4F1200220FA57
:1003D00002F001FA04F340EA0300294630BD21FA95
:1003E00004F0294630BD94F0000F83F4801306BF5B
:1003F00081F480110134013D4EE77FEA645C18BF4F
:100400007FEA655C29D094EA050F08BF90EA020FE5
:1004100005D054EA000C04BF1946104630BD91EADD
:10042000030F1EBF0021002030BD5FEA545C05D1E0
:100430004000494128BF41F0004130BD14F580041F
:100440003CBF01F5801130BD01F0004545F0FE4193
:1004500041F470014FF0000030BD7FEA645C1ABFC8
:10046000194610467FEA655C1CBF0B46024650EAFF
:10047000013406BF52EA033591EA030F41F400212B
:1004800030BD00BF90F0000F04BF0021704730B5B1
:100490004FF4806404F132044FF000054FF0000186
:1004A00050E700BF90F0000F04BF0021704730B547
:1004B0004FF4806404F1320410F0004548BF40421C
:1004C0004FF000013EE700BF42004FEAE2014FEA71
:1004D00031014FEA02701FBF12F07F4393F07F4F4C
:1004E00081F06051704732F07F4208BF704793F04F
:1004F0007F4F04BF41F40021704730B54FF4607462
:1005000001F0004521F000411CE700BF50EA010264
:1005100008BF704730B54FF000050AE050EA01020D
:1005200008BF704730B511F0004502D5404261EB7D
:1005300041014FF4806404F132045FEA915C3FF4BE
:10054000D8AE4FF003025FEADC0C18BF03325FEA5B
:10055000DC0C18BF033202EBDC02C2F1200300FA0C
:1005600003FC20FA02F001FA03FE40EA0E0021FA31
:1005700002F11444BDE600BF70B54FF0FF0C4CF41F
:10058000E06C1CEA11541DBF1CEA135594EA0C0FD1
:1005900095EA0C0F00F0DEF82C4481EA030621EA0C
:1005A0004C5123EA4C5350EA013518BF52EA033547
:1005B00041F4801143F4801338D0A0FB02CE4FF0F9
:1005C0000005E1FB02E506F00042E0FB03E54FF029
:1005D0000006E1FB03569CF0000F18BF4EF0010E21
:1005E000A4F1FF04B6F5007F64F5407404D25FEA1D
:1005F0004E0E6D4146EB060642EAC62141EA5551D0
:100600004FEAC52040EA5E504FEACE2EB4F1FD0C11
:1006100088BFBCF5E06F1ED8BEF1004F08BF5FEA8F
:10062000500E50F1000041EB045170BD06F0004641
:1006300046EA010140EA020081EA0301B4EB5C04EE
:10064000C2BFD4EB0C0541EA045170BD41F48011E6
:100650004FF0000E013C00F3AB8014F1360FDEBF0B
:10066000002001F0004170BDC4F10004203C35DAE7
:100670000C341BDC04F11404C4F1200500FA05F36A
:1006800020FA04F001FA05F240EA020001F000420B
:1006900021F0004110EBD37021FA04F642EB060181
:1006A0005EEA430E08BF20EAD37070BDC4F10C04AB
:1006B000C4F1200500FA04F320FA05F001FA04F26F
:1006C00040EA020001F0004110EBD37041F100015B
:1006D0005EEA430E08BF20EAD37070BDC4F1200566
:1006E00000FA05F24EEA020E20FA04F301FA05F2CE
:1006F00043EA020321FA04F001F0004121FA04F276
:1007000020EA020000EBD3705EEA430E08BF20EA45
:10071000D37070BD94F0000F0FD101F0004640007F
:1007200041EB010111F4801F08BF013CF7D041EA01
:10073000060195F0000F18BF704703F00046520005
:1007400043EB030313F4801F08BF013DF7D043EAD6
:100750000603704794EA0C0F0CEA135518BF95EA8C
:100760000C0F0CD050EA410618BF52EA4306D1D113
:1007700081EA030101F000414FF0000070BD50EA32
:10078000410606BF1046194652EA430619D094EABC
:100790000C0F02D150EA013613D195EA0C0F05D1A6
:1007A00052EA03361CBF104619460AD181EA0301FA
:1007B00001F0004141F0FE4141F470014FF00000B2
:1007C00070BD41F0FE4141F4780170BD70B54FF04D
:1007D000FF0C4CF4E06C1CEA11541DBF1CEA1355CD
:1007E00094EA0C0F95EA0C0F00F0A7F8A4EB0504AF
:1007F00081EA030E52EA03354FEA013100F08880A6
:100800004FEA03334FF0805545EA131343EA12636E
:100810004FEA022245EA111545EA10654FEA002623
:100820000EF000419D4208BF964244F1FD0404F5DC
:10083000407402D25B084FEA3202B61A65EB030538
:100840005B084FEA32024FF480104FF4002CB6EBF5
:10085000020E75EB030E22BFB61A754640EA0C0075
:100860005B084FEA3202B6EB020E75EB030E22BFB5
:10087000B61A754640EA5C005B084FEA3202B6EBF6
:10088000020E75EB030E22BFB61A754640EA9C00B5
:100890005B084FEA3202B6EB020E75EB030E22BF85
:1008A000B61A754640EADC0055EA060E18D04FEA43
:1008B000051545EA16754FEA06164FEAC30343EAE3
:1008C00052734FEAC2025FEA1C1CC0D111F4801FB0
:1008D0000BD141EA00014FF000004FF0004CB6E7A9
:1008E00011F4801F04BF01430020B4F1FD0C88BF48
:1008F000BCF5E06F3FF6AFAEB5EB030C04BFB6EB53
:10090000020C5FEA500C50F1000041EB045170BD45
:100910000EF0004E4EEA113114EB5C04C2BFD4EB72
:100920000C0541EA045170BD41F480114FF0000EF6
:10093000013C90E645EA060E8DE60CEA135594EA72
:100940000C0F08BF95EA0C0F3FF43BAF94EA0C0F75
:100950000AD150EA01347FF434AF95EA0C0F7FF4EA
:1009600025AF104619462CE795EA0C0F06D152EA3E
:1009700003353FF4FDAE1046194622E750EA410622
:1009800018BF52EA43067FF4C5AE50EA41047FF433
:100990000DAF52EA43057FF4EBAE12E74FF0FF3C98
:1009A00006E000BF4FF0010C02E000BF4FF0010C69
:1009B0004DF804CD4FEA410C7FEA6C5C4FEA430CE2
:1009C00018BF7FEA6C5C1BD001B050EA410C0CBF31
:1009D00052EA430C91EA030F02BF90EA020F002093
:1009E000704710F1000F91EA030F58BF994208BFFA
:1009F00090422CBFD8176FEAE37040F001007047B7
:100A00004FEA410C7FEA6C5C02D150EA013C07D10D
:100A10004FEA430C7FEA6C5CD6D152EA033CD3D058
:100A20005DF8040B704700BF8446104662468C4652
:100A30001946634600E000BF01B5FFF7B7FF002885
:100A400048BF10F1000F01BD4DF808EDFFF7F4FFAE
:100A50000CBF012000205DF808FB00BF4DF808ED39
:100A6000FFF7EAFF34BF012000205DF808FB00BF5C
:100A70004DF808EDFFF7E0FF94BF012000205DF87E
:100A800008FB00BF4DF808EDFFF7CEFF94BF012033
:100A900000205DF808FB00BF4DF808EDFFF7C4FF2C
:100AA00034BF012000205DF808FB00BF4A0011D2CE
:100AB00012F5001211D20DD56FF47873B3EB6252B8
:100AC0000ED44FEAC12343F0004343EA505323FAC4
:100AD00002F070474FF00000704750EA013002D139
:100AE0004FF0FF3070474FF0000070474FEA41026F
:100AF000B2F1E04324BFB3F5001CDCF1FE5C0DD97C
:100B000001F0004C4FEAC0024CEA5070B2F1004FC5
:100B100040EB830008BF20F00100704711F0804FC8
:100B200021D113F13872BCBF01F00040704741F48D
:100B300080114FEA5252C2F11802C2F1200C10FA91
:100B40000CF320FA02F018BF40F001004FEAC12375
:100B50004FEAD32303FA0CFC40EA0C0023FA02F319
:100B60004FEA4303CCE77FEA625307D150EA0133EF
:100B70001EBF4FF0FE4040F44000704701F00040BF
:100B800040F0FE4040F40000704700BF53B94AB93E
:100B9000002908BF00281CBF4FF0FF314FF0FF3085
:100BA00000F074B9ADF1080C6DE904CE00F006F860
:100BB000DDF804E0DDE9022304B070472DE9F047D9
:100BC000089D04468E46002B4DD18A42944669D931
:100BD000B2FA82F252B101FA02F3C2F1200120FA14
:100BE00001F10CFA02FC41EA030E94404FEA1C4862
:100BF000210CBEFBF8F61FFA8CF708FB16E341EA5E
:100C0000034306FB07F199420AD91CEB030306F1E3
:100C1000FF3080F01F81994240F21C81023E634404
:100C20005B1AA4B2B3FBF8F008FB103344EA0344A8
:100C300000FB07F7A7420AD91CEB040400F1FF33BD
:100C400080F00A81A74240F207816444023840EAFA
:100C50000640E41B00261DB1D4400023C5E9004333
:100C60003146BDE8F0878B4209D9002D00F0EF80B6
:100C70000026C5E9000130463146BDE8F087B3FAE9
:100C800083F6002E4AD18B4202D3824200F2F980D1
:100C9000841A61EB030301209E46002DE0D0C5E9D4
:100CA000004EDDE702B9FFDEB2FA82F2002A40F020
:100CB0009280A1EB0C014FEA1C471FFA8CFE012623
:100CC000200CB1FBF7F307FB131140EA01410EFBC7
:100CD00003F0884208D91CEB010103F1FF3802D26E
:100CE000884200F2CB804346091AA4B2B1FBF7F068
:100CF00007FB101144EA01440EFB00FEA64508D98B
:100D00001CEB040400F1FF3102D2A64500F2BB80C7
:100D10000846A4EB0E0440EA03409CE7C6F1200716
:100D2000B34022FA07FC4CEA030C20FA07F401FA5C
:100D300006F31C43F9404FEA1C4900FA06F3B1FBE5
:100D4000F9F8200C1FFA8CFE09FB181140EA01414A
:100D500008FB0EF0884202FA06F20BD91CEB0101E7
:100D600008F1FF3A80F08880884240F28580A8F13F
:100D700002086144091AA4B2B1FBF9F009FB101191
:100D800044EA014100FB0EFE8E4508D91CEB01012F
:100D900000F1FF346CD28E456AD90238614440EAD2
:100DA0000840A0FB0294A1EB0E01A142C846A64652
:100DB00056D353D05DB1B3EB080261EB0E0101FADB
:100DC00007F722FA06F3F1401F43C5E90071002638
:100DD0003146BDE8F087C2F12003D8400CFA02FC8E
:100DE00021FA03F3914001434FEA1C471FFA8CFE9E
:100DF000B3FBF7F007FB10360B0C43EA064300FB8E
:100E00000EF69E4204FA02F408D91CEB030300F12B
:100E1000FF382FD29E422DD9023863449B1B89B2E2
:100E2000B3FBF7F607FB163341EA034106FB0EF36B
:100E30008B4208D91CEB010106F1FF3816D28B4218
:100E400014D9023E6144C91A46EA004638E72E46E4
:100E5000284605E70646E3E61846F8E64B45A9D2DC
:100E6000B9EB020864EB0C0E0138A3E74646EAE74B
:100E7000204694E74046D1E7D0467BE7023B6144F9
:100E800032E7304609E76444023842E7704700BF62
:100E9000844641EA000313F003036DD1403A41D385
:100EA00051F8043B40F8043B51F8043B40F8043B44
:100EB00051F8043B40F8043B51F8043B40F8043B34
:100EC00051F8043B40F8043B51F8043B40F8043B24
:100ED00051F8043B40F8043B51F8043B40F8043B14
:100EE00051F8043B40F8043B51F8043B40F8043B04
:100EF00051F8043B40F8043B51F8043B40F8043BF4
:100F000051F8043B40F8043B51F8043B40F8043BE3
:100F100051F8043B40F8043B51F8043B40F8043BD3
:100F2000403ABDD2303211D351F8043B40F8043B73
:100F300051F8043B40F8043B51F8043B40F8043BB3
:100F400051F8043B40F8043B103AEDD20C3205D383
:100F500051F8043B40F8043B043AF9D2043208D07B
:100F6000D2071CBF11F8013B00F8013B01D30B88ED
:100F700003806046704700BF082A13D38B078DD0CB
:100F800010F003038AD0C3F10403D21ADB071CBF9D
:100F900011F8013B00F8013B80D331F8023B20F807
:100FA000023B7BE7043AD9D3013A11F8013B00F840
:100FB000013BF9D20B7803704B7843708B788370C8
:100FC00060467047000000000000000000000000C4
:100FD0000000000000000000000000000000000011
:100FE000A2EB0300704700BF02780B78012A28BFEC
:100FF0009A42F5D16DE9044540EA0104CDE9026762
:101000006FF0000C4FEA447212B380EA010414F04E
:10101000070F6AD100F0070420F0070004F0030571
:1010200021F007014FEAC505F0E8042314F0040F8E
:10103000F1E804670CFA05F462EA040266EA0406C1
:101040000AD063EA0403624667EA0407664603E0DF
:10105000F0E80423F1E8046782FA4CF582EA06041A
:10106000A4FA8CF46CBB83FA4CF583EA0705A5FA65
:101070008CF595B950E9022351E9026782FA4CF5E3
:1010800082EA0604A4FA8CF483FA4CF583EA070595
:10109000A5FA8CF52543DBD09CB92DBAB5FA85F4B9
:1010A00024F0070427FA04F1DDE9026723FA04F3C8
:1010B00003F0FF0001F0FF01FDE80445A0EB010093
:1010C000704724BAB4FA84F424F0070426FA04F131
:1010D000DDE9026722FA04F202F0FF0001F0FF01ED
:1010E000FDE80445A0EB0100704714F0030F3CD16C
:1010F00010F0030428D150F8082B51F8083B82FA6D
:101100004CF582EA0305A5FA8CF55DB950F8042C7C
:1011100051F8043C82FA4CF582EA0305A5FA8CF5F5
:10112000002DE8D02DBAB5FA85F424F0070423FA8F
:1011300004F122FA04F202F0FF0001F0FF01FDE8E1
:101140000445A0EB010070474FEAC40420F00300FF
:1011500050F8082B21F0030151F8083B0CFA04F475
:1011600062EA040263EA0403C9E710F003041AD038
:10117000A1EB040120F00300E40750F8042B06D093
:101180000FD28B785FFAA2F4E41A06D12BB1CB7898
:101190005FFAB2F4E41A00D11BB920465DF8104B97
:1011A000704701F1040150F8042BCC0721F0030132
:1011B00051F8043B48D824D222F07F4482FA4CF5FF
:1011C00094EA1325A5FA8CF50AD165B951F8043BC8
:1011D00084EA0204B4EB036F0ED150F8042BEBE762
:1011E0004FEA132355E035F07F454DD10878FDE8EF
:1011F0000445C0F1000070474FEA126203F0FF039C
:1012000047E002EA1C4482FA4CF594EA1345A5FA39
:101210008CF50AD165B951F8043B84EA0204B4EBB9
:10122000034F0CD150F8042BEBE74FEA134330E0A7
:1012300015EA1C4528D10B884FEA124229E04FEAF3
:10124000124203EA1C4324E002F0FF0482FA4CF548
:1012500094EA1365A5FA8CF50AD165B951F8043BF7
:1012600084EA0204B4EB032F09D150F8042BEBE716
:101270004FEA13630DE015F0FF0F05D10B684FEA3D
:10128000122223F07F4304E04FF00000FDE8044504
:10129000704712BA1BBA82FA4CF482EA0304A4FA29
:1012A0008CF5B5FA85F402FA04F203FA04F34FEA76
:1012B0001260FDE80445A0EB1360704700000000D9
:1012C00090F800F06DE9024520F007016FF0000C86
:1012D00010F0070491F820F040F049804FF000042E
:1012E0006FF00700D1E9002391F840F000F1080009
:1012F00082FA4CF2A4FA8CF283FA4CF3A2FA8CF341
:101300004BBBD1E9022382FA4CF200F10800A4FAA7
:101310008CF283FA4CF3A2FA8CF3E3B9D1E90423FB
:1013200082FA4CF200F10800A4FA8CF283FA4CF332
:10133000A2FA8CF37BB9D1E9062301F1200182FAEC
:101340004CF200F10800A4FA8CF283FA4CF3A2FAF2
:101350008CF3002BC6D0002A04BF04301A4612BA00
:10136000B2FA82F2FDE8024500EBD2007047D1E903
:10137000002304F00305C4F100004FEAC50514F092
:10138000040F91F840F00CFA05F562EA05021CBF63
:1013900063EA050362464FF00004A9E7000000007D
:1013A00001F0FF01102A2BDB10F0070F08D010F816
:1013B000013B013A8B422DD010F0070F42B3F6D11A
:1013C000F0B441EA012141EA014122F007047FF033
:1013D00000070023F0E80256083C85EA010586EA8A
:1013E000010685FA47F5A3FA87F586FA47F6A5FAC6
:1013F00087F68EB9EED1F0BC01F0FF0102F00702D2
:1014000032B110F8013B013A83EA010313B1F8D17C
:101410000020704701387047002D06BF354603385D
:10142000073815F0010F07D1013015F4807F02BF96
:10143000013015F4C03F0130F0BC0138704700BFE7
:101440004FEA410C7FEA6C5C02D150EA013C0AD1C0
:101450004FEA430C7FEA6C5C02D152EA033C02D1B2
:101460004FF0000070474FF0010070474FEA410213
:1014700012F5001215D211D56FF47873B3EB6252E6
:1014800012D94FEAC12343F0004343EA505311F00D
:10149000004F23FA02F018BF404270474FF000009F
:1014A000704750EA013005D111F0004008BF6FF0DD
:1014B000004070474FF00000704700BF08B504F0CF
:1014C000B1F808BD10B5044604F06AF8230A5B00C1
:1014D000DBB2603B03F0FE0004F04CF904F0D8F8F6
:1014E000E0B204F047F904F0D3F804F059F8A12071
:1014F00004F040F904F0CCF8002004F06FF9044641
:1015000004F072F8204610BD38B504460D4604F0CC
:1015100047F8230A5B00DBB2603B03F0FE0004F0F7
:1015200029F904F0B5F8E0B204F024F904F0B0F8B9
:10153000284604F01FF904F0ABF804F055F80A202F
:1015400000F018FA38BD70B50C4607E0461CB6B27C
:10155000FFF7B8FF04F8010B2A463046531E9DB230
:10156000002AF3D170BD70B504460E4607E016F8A8
:10157000011B2046FFF7C8FF0134A4B22A46531EC0
:101580009DB2002AF3D170BD00B585B00023009351
:101590000193029303931748174A02604FF4803275
:1015A000426083600361037680F820304FF0805200
:1015B000C2624FF000628262C3600122C26180F8A1
:1015C0003030426105F060F968B9062300930123C9
:1015D0000193002302936946064805F0D1FA28B921
:1015E00005B05DF804FB03F0F4FEEEE703F0F1FE56
:1015F000F6E700BFBC0A00200020014010B588B00B
:10160000002303930493059306930793026803F161
:10161000804303F590339A4201D008B010BD0024F6
:10162000019403F58C335A6C42F480725A645A6CFC
:1016300002F480720192019A02941A6B42F0010244
:101640001A631B6B03F001030293029B4023039375
:101650000323049303A9064805F0C0FC2246214653
:10166000122005F06DFB122005F0A2FBD5E700BFAC
:101670000000024008B5022000F05CF908BD00003F
:1016800038B50F4D01224FF40061284605F09FFD4B
:101690000C4C01221146204605F099FDFFF7EAFFA8
:1016A00000224FF40061284605F091FDFFF7E2FFAC
:1016B00000220121204605F08AFDFFF7DBFF38BD3F
:1016C000001402400004024010B50C4C00224FF4FC
:1016D0000061204605F07BFDFFF7CCFF012211469B
:1016E000074805F074FDFFF7C5FF01224FF40061C4
:1016F000204605F06CFDFFF7BDFF10BD0014024051
:101700000004024000B589B000210191154B1A6B0D
:1017100042F002021A631A6B02F002020192019A6D
:1017200002911A6B42F020021A631B6B03F0200334
:101730000293029B01230393112204920593032336
:10174000069303A9084805F049FC4FF4006303938E
:1017500003A9064805F042FCFFF7B6FF09B05DF8A3
:1017600004FB00BF003802400004024000140240A5
:1017700038B501224FF40061134805F028FDFFF74A
:1017800079FF01221146114805F021FDFFF772FF94
:1017900000244FF400610C4805F012FD054648B1E5
:1017A0000134E4B2FA2C02D8FFF764FFF1E7FFF747
:1017B0008BFF012500220121044805F008FDFFF7F9
:1017C00059FF284638BD00BF001402400004024003
:1017D00038B5104C00224FF40061204605F0F7FCAC
:1017E000FFF748FF0C4D01221146284605F0EFFC9B
:1017F000FFF740FF00220121284605F0E8FCFFF733
:1018000039FF01224FF40061204605F0E0FCFFF7AC
:1018100031FF38BD001402400004024010B501221F
:101820004FF400610A4805F0D2FCFFF723FF094C92
:1018300001221146204605F0CAFCFFF71BFF0022DB
:101840000121204605F0C3FCFFF714FF10BD00BFC7
:10185000001402400004024070B50446002518E060
:1018600000224FF40061144805F0B1FCFFF702FFBD
:10187000124E01221146304605F0A9FCFFF7FAFE90
:1018800000220121304605F0A2FC6400E4B20135DB
:10189000EDB2072D09D814F0800FE1D001224FF4EA
:1018A0000061054805F093FCE0E701224FF4006178
:1018B000014805F08CFC70BD001402400004024099
:1018C00070B506460024254608E000220121124892
:1018D00005F07DFCFFF7CEFE0135EDB2072D12D8E5
:1018E0006400E4B2012211460B4805F070FCFFF7DA
:1018F000C1FE4FF40061094805F062FC0028E4D005
:101900000134E4B2E1E71EB9FFF788FF204670BD5D
:10191000FFF75EFFFAE700BF000402400014024038
:1019200010B50446042005F065FA014B1C6010BD9B
:10193000040B002010B44FF0E02254690C4B1B68DC
:1019400000FB03FC9369002104E0E01A0244114407
:10195000614509D21A464FF0E0239B699A42FAD0BA
:10196000F3D9D21A1144F3E75DF8044B704700BF76
:10197000040B002038B50D4CA4FB0034650A2C463E
:101980004FF4077303FB150085B203E00848FFF727
:10199000D1FF013C002CF9D105B938BD4FF47A7064
:1019A00005FB00F0FFF7C6FFF7E700BF49D6B9F225
:1019B000603D080000B583B000230193164A116B07
:1019C00041F480011163126B02F480020192019ACA
:1019D0001248134A02604360802282604FF4007212
:1019E000C2604FF4806202614FF4006242614FF4C2
:1019F00000528261C3610362042242620322826256
:101A0000C362036305F070FA10B903B05DF804FB1C
:101A100003F0DFFCF9E700BF00380240080B0020AC
:101A2000106402402DE9F04186B000230193029337
:101A3000039304930593224B1B6813B106B0BDE8D2
:101A4000F0811F4B01221A60002600961D4B9A6BF5
:101A500042F001029A639B6B03F001030093009B29
:101A60004FF48058CDF8048002270297032504958F
:101A70000C24059401A9144805F0B0FA4FF68073C0
:101A80000193029703960495059401A90F4805F068
:101A9000A5FA4CF2337301930297039604950594CB
:101AA00001A90B4805F09AFACDF804800297039635
:101AB0000495059401A9074805F090FABEE700BF18
:101AC000680B002000380240001402400010024061
:101AD000000C02400018024010B58EB0002307939E
:101AE000089309930A930B930C930D93009301931E
:101AF000029303930493059306931A484FF02042F0
:101B0000026002F58272426006228260C360036155
:101B1000102242618361C361036243624FF48051CA
:101B20008162C3624FF48041016343638363436412
:101B30000F2307930893FF2409940A930B92112112
:101B40000C910093019302940393049205916A46C9
:101B500007A905F0B0FE08B90EB010BD03F039FCBE
:101B6000FAE700BF6C0B002008B5FFF75BFF08BD6C
:101B7000F8B504460F461546FFF782FD7020FFF7C3
:101B80006BFEFFF7F5FDE0B2FFF766FEFFF7F0FD35
:101B90000026344601E00134E4B2AC4207D2385D9D
:101BA000FFF75AFEFFF7E4FD06460028F3D0FFF7E3
:101BB0008BFD3046F8BD70B504460E461546FFF75E
:101BC0005FFD7020FFF748FEFFF7D2FDE0B2FFF7A0
:101BD00043FEFFF7CDFDFFF753FD7120FFF73CFEFD
:101BE000FFF7C6FD002408E0681E201A18BF012078
:101BF000FFF766FE30550134E4B2AC42F4D3FFF790
:101C000063FD70BD2DE9F04389B0002500953E4B82
:101C10001A6B42F004021A631A6B02F0040200927B
:101C2000009A01951A6B42F002021A631B6B03F0D3
:101C300002030193019B4FF400570397012404947E
:101C400005944FF00309CDF81890304E03A93046A3
:101C500005F0C4F94FF00208CDF80C800495059406
:101C6000CDF8189003A92A4805F0B8F9FFF74AFD06
:101C70002A463946304605F0AAFA1420FFF77AFEC4
:101C800022463946304605F0A2FA3220FFF772FEAE
:101C90008DF80850224602A92846FFF769FF224620
:101CA00002A9A420FFF764FF16238DF8083022460E
:101CB00002A98020FFF75CFF0C238DF80830224634
:101CC00002A98820FFF754FF424602A9A120FFF78E
:101CD00072FF9DF80820302A09D09DF80930012BA9
:101CE00009D0022B07D0012009B0BDE8F0839DF890
:101CF00009304B45F1D19DF8091001EB022105484F
:101D000031F0B4FD0020EFE7003802400008024047
:101D100000040240B8B3030830B583B000238DF847
:101D200007305E4B1A780132D2B21A705C4BA3FBBB
:101D30000213DB0803EB83035900511A11F0FF0F64
:101D400002D0092A00F2868001220DF1070102204B
:101D5000FFF731FF9DF8070000F00F0000287AD050
:101D6000052800F294804FF6FF738340DB436FEA4F
:101D700083436FEA93434B4A938600242DE04A4BFA
:101D80001A889DF800301B0203F470639DF801105F
:101D90000B44D31A4349221D01EB420293809DF864
:101DA00002301B0203F470639DF80320134404F116
:101DB000100221F812309DF8003003F0F003802B60
:101DC00009D0384A05F11003002122F813102B1D09
:101DD00002EB430399800134E4B2042C2DD8314B3B
:101DE0009B8E2546234113F0010FF4D0042269464F
:101DF0002E4B33F81400FFF7DEFE2A4B93F84430E5
:101E000013F0010FBBD09DF800301B0203F4706388
:101E10009DF801201344234A04F1100122F81130E7
:101E20009DF802301B0203F470639DF803100B440D
:101E3000211D02EB41029380BDE71A4B9B8923B918
:101E4000184B1B8C0BB98DF80730144B00221A70FD
:101E5000012000E000209DF8073013F01F0F0DD186
:101E6000104A938EB2F93420002A12DB0D4A4FF645
:101E7000FF719181118403F460439386074B1B78B3
:101E8000F02B02D9054B0A221A7003B030BD002096
:101E9000E1E7C3F30E03034A9386EFE7BC0B002090
:101EA000CDCCCCCC0C000020100C0020C4B3030817
:101EB00070B58EB0002409940A940B940C940D9480
:101EC00001943F4B1A6B42F010021A631A6B02F036
:101ED00010020192019A02941A6B42F004021A63F2
:101EE0001A6B02F004020292029A03941A6B42F0F7
:101EF00020021A631A6B02F020020392039A0494E0
:101F00001A6B42F080021A631A6B02F0800204928C
:101F1000049A05941A6B42F001021A631A6B02F0DC
:101F200001020592059A06941A6B42F002021A63A6
:101F30001A6B02F002020692069A07941A6B42F09C
:101F400008021A631A6B02F008020792079A0894B3
:101F50001A6B42F040021A631B6B03F040030893B4
:101F6000089B184E01224FF40071304605F02FF9FE
:101F7000154D01224FF40041284605F028F90823A9
:101F800009930A9401240B9409A9104805F026F836
:101F90004FF4007309930A940B9402230C9309A93C
:101FA000304605F01BF84FF4004309930A940B9454
:101FB00003230C9309A9284605F010F80EB070BD54
:101FC00000380240001402400004024000100240A9
:101FD000F8B504460F461546FFF752FB2820FFF7D9
:101FE0003BFCFFF7C5FB200AFFF736FCFFF7C0FB01
:101FF000E0B2FFF731FCFFF7BBFB0026344601E0FF
:102000000134E4B2AC4207D2385DFFF725FCFFF79C
:10201000AFFB06460028F3D0FFF756FB3046F8BD6D
:1020200070B504460E461546FFF72AFB2820FFF739
:1020300013FCFFF79DFB200AFFF70EFCFFF798FB50
:10204000E0B2FFF709FCFFF793FBFFF719FB29202C
:10205000FFF702FCFFF78CFB002408E0681E201A43
:1020600018BF0120FFF72CFC30550134E4B2AC421C
:10207000F4D3FFF729FB70BD2DE9F0478AB00024A7
:1020800001943B4B1A6B42F004021A631A6B02F084
:1020900004020192019A02941A6B42F002021A633E
:1020A0001B6B03F002030293029B4FF40058CDF820
:1020B0001480012506950795032608962D4F05A93E
:1020C000384604F08BFF4FF0020ACDF814A00694B6
:1020D00007950896DFF8A89005A9484604F07EFF0A
:1020E000FFF710FB22464146384605F070F80A20FB
:1020F000FFF740FC2A464146384605F068F80A20BA
:10210000FFF738FCCDF814A006940794089605A9AB
:10211000484604F063FF6420FFF72CFC042203A967
:1021200048F24010FFF77CFF8DF81040124903A8D9
:10213000FEF75AFF10B9114B0A221A7002238DF8CC
:102140000C30012203A948F24000FFF741FF0A20AA
:10215000FFF710FC00248DF80C40012203A948F27F
:102160004000FFF735FF20460AB0BDE8F08700BF0A
:102170000038024000080240D0B3030800000020ED
:102180000004024010B584B08DF8070000238DF8DC
:102190000B30BC4B1A780132D2B21A70BA4BA3FB87
:1021A0000213DB0803EB8303A2EB430313F0FF0FDF
:1021B00002D0092A00F2408101220DF1070148F204
:1021C0004E10FFF72DFF9DF807309DF90720002ADC
:1021D00023DB9DF8070000F00F00002800F02D81A0
:1021E000AA4B1A78904200F237814FF6FF73834072
:1021F000A7498C8EDB436FEA83436FEA93438B8658
:102200008889D31C01EB430398800B8C0F3221F893
:10221000123000238DF80B3035E09C4A127803F021
:102220000F039A42D5D300238DF80B3001220DF114
:102230000B0148F24E10FFF7CBFECAE7944B93F820
:10224000443013F0010F5ED09DF80D209DF80C3046
:102250009DF80B1003EB02238D4A01F1100022F8C8
:1022600010309DF80F009DF80E3003EB00239BB259
:10227000C3F54873043102EB410293809DF80B30A3
:1022800001338DF80B309DF80B00804B1B78984282
:1022900080F0A2807E4B9B8E034113F0010FEDD0A6
:1022A000042203A97B4B33F81000FFF7B9FE7A4BE9
:1022B0009B8845F210529342C0D044F2423293427E
:1022C00038D041F218029342D8D1714B93F8443080
:1022D00013F0010F66D09DF80F309DF80E109DF899
:1022E0000B2001EB03216A4B02F1100023F81010C0
:1022F0009DF80D009DF80C1001EB0021043203EB5A
:1023000042039980BAE79DF80D209DF80C109DF8C6
:102310000B3001EB02215E481A1D00EB4202918056
:102320009DF80F109DF80E2002EB0122103320F8CB
:102330001320A3E7564B93F8443013F0010F16D047
:102340009DF80D209DF80C109DF80B3001EB02213B
:102350004F481A1D00EB420291809DF80F109DF826
:102360000E2002EB0122103320F8132086E79DF89F
:102370000D209DF80C309DF80B1003EB0223444A0E
:1023800001F1100022F810309DF80F009DF80E307A
:1023900003EB00239BB2C3F58873043102EB4102C7
:1023A00093806BE79DF80F209DF80E3003EB02231E
:1023B0009BB29DF80B20C3F548733548111D00EB07
:1023C00041018B809DF80D109DF80C3003EB01232B
:1023D000103220F8123051E72D4A91892E4A128886
:1023E000914205D82A4A118C2B4A528891421ED913
:1023F0009DF8072012F00E0F09D0254BDA899A813B
:102400005A8C1A841F4B00221A70012015E0204AB2
:10241000D91C02EB4101898891810F3332F81330C6
:10242000138480238DF807309486012005E0154B36
:1024300000221A70012000E000209DF8073003F010
:102440008F03802B0AD00F4B1B78F02B02D90D4B3A
:102450000A221A7004B010BD0020EEE70C4A938ED9
:10246000B2F93420002A08DB094A4FF6FF71918146
:10247000118403F460439386E5E7C3F30E03044A33
:102480009386E0E7BD0B0020CDCCCCCC0000002033
:102490000C000020D8B30308100C002082B04FF0CD
:1024A000D843B3F880309BB2ADF80630BDF80600D3
:1024B00080B202B0704782B0ADF80600BDF80630B9
:1024C0009BB2ADF80630BDF806309BB24FF0D84253
:1024D000A2F8803002B0704782B0ADF80600BDF8B7
:1024E00006309BB2ADF80630BDF806309BB24FF017
:1024F000D842A2F87E3002B070474FF0D843A3F81C
:102500007E00A3F880107047034B1A894FF0D84320
:10251000A3F87E20704700BF100C002070B5054660
:102520000C46404B9B8841F66312934217D045F20C
:102530001052934257D03B4E7089FFF7CDFF280AC7
:10254000FFF7B9FFE8B2FFF7B6FFB089FFF7C4FFA6
:10255000200AFFF7B0FFE0B2FFF7ADFF70BD314BCF
:102560009B7953BB2F4B1888451BADB2013DADB2D3
:102570005889FFF7B1FF0020FFF79DFF0020FFF70C
:102580009AFF280AFFF797FFE8B2FFF794FF254D5F
:10259000A889FFF7A1FF200AFFF78DFFE0B2FFF740
:1025A0008AFF68880138C0F30F20FFF784FF68882E
:1025B0000138C0B2FFF77FFFD0E71A4E7089FFF7EE
:1025C0008BFF280AFFF777FFE8B2FFF774FF308828
:1025D0000138C0F30F20FFF76EFF30880138C0B21A
:1025E000FFF769FFD3E70F4E7089FFF775FF280AE1
:1025F000FFF761FF7089013080B2FFF76DFFE8B22D
:10260000FFF759FFB089FFF767FF200AFFF753FF75
:10261000B089013080B2FFF75FFFE0B2FFF74BFFF8
:102620009CE700BF100C002010B5744B9B79012B68
:1026300010D02BB9714B9A8841F663139A420FD090
:102640000138062800F28480DFE800F07472706EB2
:102650006C6A1600694A918841F663129142E8D08B
:102660000728EDD8DFE800F072706C6E06046A6827
:10267000002402E0802400E0E024604B9B8845F2C7
:102680001052934266D0362049F24132934203D031
:1026900047F28972934201D144F008042146FFF7C2
:1026A0002CFF564B9B8841F6631293420AD014F0DC
:1026B000200F52D0514A11885288914202D24F487D
:1026C0000280418045F2105293424FD04B4C6089BA
:1026D000FFF702FF0020FFF7EEFE0020FFF7EBFE02
:1026E00020880138C0F30F20FFF7E5FE208801386D
:1026F000C0B2FFF7E0FEA089FFF7EEFE0020FFF773
:10270000DAFE0020FFF7D7FE60880138C0F30F2003
:10271000FFF7D1FE60880138C0B2FFF7CCFE10BDD4
:10272000A024AAE76024A8E72024A6E7C024A4E701
:102730004024A2E78024A0E740249EE7C0249CE731
:1027400020249AE7602498E7E02496E7A02494E701
:10275000002492E74FF4585096E7284A118852888F
:102760009142AFD9254802804180ABE7234C608974
:10277000FFF7B2FE0020FFF79EFE6089013080B2B5
:10278000FFF7AAFE0020FFF796FE6089023080B2B4
:10279000FFF7A2FE20880138C0F30F20FFF78BFE61
:1027A0006089033080B2FFF797FE20880138C0B2FD
:1027B000FFF781FEA089FFF78FFE0020FFF77BFE69
:1027C000A089013080B2FFF787FE0020FFF773FE7B
:1027D000A089023080B2FFF77FFE60880138C0F325
:1027E0000F20FFF768FEA089033080B2FFF774FE68
:1027F00060880138C0B2FFF75EFE90E7100C002041
:1028000010B51446FFF78AFEFFF77EFEA4B24FF024
:10281000D843A3F8804010BD10B50446BE20FFF792
:102820005BFE0520FFF747FE2046FDF73BFE0CA3AD
:10283000D3E90023FDF7A0FEFEF738F980B2FFF7D9
:102840003AFE0120FFF737FEFF20FFF734FE00209D
:10285000FFF731FE0020FFF72EFE10BDAFF3008022
:10286000666666666666044008B5444B9871002843
:1028700043D1F0221A804FF4A0725A809B8845F20F
:102880001052934212D041F6631293421FD03B4A3A
:102890002C2111812A2151812B21918145F2103265
:1028A000934222D00020FFF7BFFE08BD334A4FF409
:1028B000305111814FF4285151814FF42C519181A5
:1028C0004FF4F07111804FF448715180E6E72B4AC4
:1028D0002C2111812B2151812A2191814FF4F071FA
:1028E00011804FF448715180D8E7244B4FF4A07207
:1028F0001A804FF4F0725A80D4E7204B4FF4A07244
:102900001A80F0225A809B8845F21052934216D0CA
:1029100041F66312934223D0184A2C2111812A21B7
:1029200051812B21918145F210329342BAD1134B40
:102930004FF4F0721A804FF4A0725A80B2E70F4A37
:102940004FF4305111814FF4285151814FF42C51E3
:1029500091814FF4487111804FF4F0715180E2E79A
:10296000064A2C2111812A2151812B2191814FF47A
:10297000487111804FF4F0715180D4E7100C0020A1
:1029800008B51120FFF7A8FD7820FEF7F3FF3620E9
:10299000FFF7A2FD0020FFF78EFD3A20FFF79CFD18
:1029A0000520FFF788FDB220FFF796FD0C20FFF70A
:1029B00082FD0C20FFF77FFD0020FFF77CFD332018
:1029C000FFF779FD3320FFF776FDB720FFF784FD91
:1029D0003520FFF770FDBB20FFF77EFD3220FFF7AB
:1029E0006AFDC020FFF778FD0C20FFF764FDC220D0
:1029F000FFF772FD0120FFF75EFDC320FFF76CFDBE
:102A00001020FFF758FDC420FFF766FD2020FFF7D8
:102A100052FDC620FFF760FD0F20FFF74CFDD020D0
:102A2000FFF75AFDA420FFF746FDA120FFF743FD65
:102A3000E020FFF751FDD020FFF73DFD0020FFF71C
:102A40003AFD0220FFF737FD0720FFF734FD0A208B
:102A5000FFF731FD2820FFF72EFD3220FFF72BFD79
:102A60004420FFF728FD4220FFF725FD0620FFF751
:102A700022FD0E20FFF71FFD1220FFF71CFD142082
:102A8000FFF719FD1720FFF716FDE120FFF724FDE2
:102A9000D020FFF710FD0020FFF70DFD0220FFF70B
:102AA0000AFD0720FFF707FD0A20FFF704FD282095
:102AB000FFF701FD3120FFF7FEFC5420FFF7FBFC80
:102AC0004720FFF7F8FC0E20FFF7F5FC1C20FFF76E
:102AD000F2FC1720FFF7EFFC1B20FFF7ECFC1E2099
:102AE000FFF7E9FC2A20FFF7F7FC0020FFF7E3FCE3
:102AF0000020FFF7E0FC0020FFF7DDFCEF20FFF7F0
:102B0000DAFC2B20FFF7E8FC0020FFF7D4FC0020C4
:102B1000FFF7D1FC0120FFF7CEFC3F20FFF7CBFCF5
:102B20002920FFF7D9FC08BD08B5CF20FFF7D4FC5A
:102B30000020FFF7C0FCC120FFF7BDFC3020FFF7ED
:102B4000BAFCED20FFF7C8FC6420FFF7B4FC0320BB
:102B5000FFF7B1FC1220FFF7AEFC8120FFF7ABFCC2
:102B6000E820FFF7B9FC8520FFF7A5FC1020FFF750
:102B7000A2FC7A20FFF79FFCCB20FFF7ADFC3920A9
:102B8000FFF799FC2C20FFF796FC0020FFF793FC41
:102B90003420FFF790FC0220FFF78DFCF720FFF7B1
:102BA0009BFC2020FFF787FCEA20FFF795FC002024
:102BB000FFF781FC0020FFF77EFCC020FFF78CFCB4
:102BC0001B20FFF778FCC120FFF786FC0120FFF7F0
:102BD00072FCC520FFF780FC3020FFF76CFC302032
:102BE000FFF769FCC720FFF777FCB720FFF763FC0E
:102BF0003620FFF771FC4820FFF75DFC3A20FFF715
:102C00006BFC5520FFF757FCB120FFF765FC002057
:102C1000FFF751FC1A20FFF74EFCB620FFF75CFCD3
:102C20000A20FFF748FCA220FFF745FCF220FFF73F
:102C300053FC0020FFF73FFC2620FFF74DFC01204E
:102C4000FFF739FCE020FFF747FC0F20FFF733FCCC
:102C50002A20FFF730FC2820FFF72DFC0820FFF783
:102C60002AFC0E20FFF727FC0820FFF724FC542045
:102C7000FFF721FCA920FFF71EFC4320FFF71BFCF8
:102C80000A20FFF718FC0F20FFF715FC0020FFF7C4
:102C900012FC0020FFF70FFC0020FFF70CFC0020C7
:102CA000FFF709FCE120FFF717FC0020FFF703FC0A
:102CB0001520FFF700FC1720FFF7FDFB0720FFF7AB
:102CC000FAFB1120FFF7F7FB0620FFF7F4FB2B20A0
:102CD000FFF7F1FB5620FFF7EEFB3C20FFF7EBFB85
:102CE0000520FFF7E8FB1020FFF7E5FB0F20FFF7BB
:102CF000E2FB3F20FFF7DFFB3F20FFF7DCFB0F206D
:102D0000FFF7D9FB2B20FFF7E7FB0020FFF7D3FBF2
:102D10000020FFF7D0FB0120FFF7CDFB3F20FFF79E
:102D2000CAFB2A20FFF7D8FB0020FFF7C4FB0020D6
:102D3000FFF7C1FB0020FFF7BEFBEF20FFF7BBFB57
:102D40001120FFF7C9FB7820FEF714FE2920FFF7BA
:102D5000C3FB08BD08B5ED20FFF7BEFB0120FFF760
:102D6000AAFBFE20FFF7A7FBEE20FFF7B5FBDE2056
:102D7000FFF7A1FB2120FFF79EFBF120FFF7ACFB43
:102D80000120FFF798FBDF20FFF7A6FB1020FFF7DD
:102D900092FBC420FFF7A0FB8F20FFF78CFBC6201F
:102DA000FFF79AFB0020FFF786FBE220FFF783FB8B
:102DB000E220FFF780FBE220FFF77DFBBF20FFF75B
:102DC0008BFBAA20FFF777FBB020FFF785FB0D20D8
:102DD000FFF771FB0020FFF76EFB0D20FFF76BFB89
:102DE0000020FFF768FB1120FFF765FB0020FFF7CD
:102DF00062FB1920FFF75FFB0020FFF75CFB21203F
:102E0000FFF759FB0020FFF756FB2D20FFF753FB80
:102E10000020FFF750FB3D20FFF74DFB0020FFF7A0
:102E20004AFB5D20FFF747FB0020FFF744FB5D20D6
:102E3000FFF741FB0020FFF73EFBB120FFF74CFB03
:102E40008020FFF738FB0020FFF735FB8B20FFF7D2
:102E500032FB0020FFF72FFB9620FFF72CFB002012
:102E6000FFF729FBB220FFF737FB0020FFF723FB1A
:102E70000020FFF720FB0220FFF71DFB0020FFF7DB
:102E80001AFB0320FFF717FB0020FFF714FBB3200A
:102E9000FFF722FB0020FFF70EFB0020FFF70BFBE4
:102EA0000020FFF708FB0020FFF705FB0020FFF7DD
:102EB00002FB0020FFF7FFFA0020FFF7FCFA0020DA
:102EC000FFF7F9FA0020FFF7F6FA0020FFF7F3FA10
:102ED0000020FFF7F0FA0020FFF7EDFA0020FFF7DF
:102EE000EAFA0020FFF7E7FA0020FFF7E4FA0020F3
:102EF000FFF7E1FA0020FFF7DEFA0020FFF7DBFA28
:102F00000020FFF7D8FA0020FFF7D5FA0020FFF7DE
:102F1000D2FA0020FFF7CFFA0020FFF7CCFA00200A
:102F2000FFF7C9FAB420FFF7D7FA8B20FFF7C3FAEF
:102F30000020FFF7C0FA9620FFF7BDFA0020FFF748
:102F4000BAFAA120FFF7B7FA0020FFF7B4FAB520CC
:102F5000FFF7C2FA0220FFF7AEFA0020FFF7ABFA44
:102F60000320FFF7A8FA0020FFF7A5FA0420FFF7D7
:102F7000A2FA0020FFF79FFAB620FFF7ADFA002073
:102F8000FFF799FA0020FFF796FAB720FFF7A4FAA7
:102F90000020FFF790FA0020FFF78DFA3F20FFF79F
:102FA0008AFA0020FFF787FA5E20FFF784FA0020F4
:102FB000FFF781FA6420FFF77EFA0020FFF77BFA23
:102FC0008C20FFF778FA0020FFF775FAAC20FFF7A6
:102FD00072FA0020FFF76FFADC20FFF76CFA00208E
:102FE000FFF769FA7020FFF766FA0020FFF763FA2F
:102FF0009020FFF760FA0020FFF75DFAEB20FFF763
:103000005AFA0020FFF757FADC20FFF754FA0020A5
:10301000FFF751FAB820FFF75FFA0020FFF74BFAED
:103020000020FFF748FA0020FFF745FA0020FFF7DD
:1030300042FA0020FFF73FFA0020FFF73CFA002099
:10304000FFF739FA0020FFF736FABA20FFF744FA03
:103050002420FFF730FA0020FFF72DFA0020FFF7B9
:103060002AFA0020FFF727FAC120FFF735FA2020BF
:10307000FFF721FA0020FFF71EFA5420FFF71BFA92
:103080000020FFF718FAFF20FFF715FA0020FFF7DE
:1030900012FAC220FFF720FA0A20FFF70CFA0020EC
:1030A000FFF709FA0420FFF706FA0020FFF703FAFA
:1030B000C320FFF711FA3C20FFF7FDF90020FFF7CE
:1030C000FAF93A20FFF7F7F90020FFF7F4F9392071
:1030D000FFF7F1F90020FFF7EEF93720FFF7EBF9E2
:1030E0000020FFF7E8F93C20FFF7E5F90020FFF7A3
:1030F000E2F93620FFF7DFF90020FFF7DCF9322094
:10310000FFF7D9F90020FFF7D6F92F20FFF7D3F901
:103110000020FFF7D0F92C20FFF7CDF90020FFF7B2
:10312000CAF92920FFF7C7F90020FFF7C4F92620C4
:10313000FFF7C1F90020FFF7BEF92420FFF7BBF924
:103140000020FFF7B8F92420FFF7B5F90020FFF7BA
:10315000B2F92320FFF7AFF90020FFF7ACF93C20CC
:10316000FFF7A9F90020FFF7A6F93620FFF7A3F92A
:103170000020FFF7A0F93220FFF79DF90020FFF7AC
:103180009AF92F20FFF797F90020FFF794F92C20E8
:10319000FFF791F90020FFF78EF92920FFF78BF94F
:1031A0000020FFF788F92620FFF785F90020FFF7B8
:1031B00082F92420FFF77FF90020FFF77CF9242013
:1031C000FFF779F90020FFF776F92320FFF773F96D
:1031D0000020FFF770F9C420FFF77EF96220FFF7A7
:1031E0006AF90020FFF767F90520FFF764F900206E
:1031F000FFF761F98420FFF75EF90020FFF75BF924
:10320000F020FFF758F90020FFF755F91820FFF7D5
:1032100052F90020FFF74FF9A420FFF74CF90020E6
:10322000FFF749F91820FFF746F90020FFF743F9A7
:103230005020FFF740F90020FFF73DF90C20FFF781
:103240003AF90020FFF737F91720FFF734F900208B
:10325000FFF731F99520FFF72EF90020FFF72BF942
:10326000F320FFF728F90020FFF725F9E620FFF704
:1032700022F90020FFF71FF9C520FFF72DF93220B2
:10328000FFF719F90020FFF716F94420FFF713F9AB
:103290000020FFF710F96520FFF70DF90020FFF778
:1032A0000AF97620FFF707F90020FFF704F98820D4
:1032B000FFF701F90020FFF7FEF8C620FFF70CF931
:1032C0002020FFF7F8F80020FFF7F5F81720FFF7A8
:1032D000F2F80020FFF7EFF80120FFF7ECF80020EC
:1032E000FFF7E9F8C720FFF7F7F80020FFF7E3F84A
:1032F0000020FFF7E0F80020FFF7DDF80020FFF7DF
:10330000DAF8C820FFF7E8F80020FFF7D4F800202B
:10331000FFF7D1F80020FFF7CEF80020FFF7CBF839
:10332000C920FFF7D9F80020FFF7C5F80020FFF704
:10333000C2F80020FFF7BFF80020FFF7BCF800201C
:10334000FFF7B9F80020FFF7B6F80020FFF7B3F851
:103350000020FFF7B0F80020FFF7ADF80020FFF7DE
:10336000AAF80020FFF7A7F80020FFF7A4F8002034
:10337000FFF7A1F80020FFF79EF80020FFF79BF869
:103380000020FFF798F8E020FFF7A6F81620FFF7D7
:1033900092F80020FFF78FF81C20FFF78CF8002030
:1033A000FFF789F82120FFF786F80020FFF783F860
:1033B0003620FFF780F80020FFF77DF84620FFF762
:1033C0007AF80020FFF777F85220FFF774F8002012
:1033D000FFF771F86420FFF76EF80020FFF76BF835
:1033E0007A20FFF768F80020FFF765F88B20FFF7D9
:1033F00062F80020FFF75FF89920FFF75CF80020E3
:10340000FFF759F8A820FFF756F80020FFF753F808
:10341000B920FFF750F80020FFF74DF8C420FFF760
:103420004AF80020FFF747F8CA20FFF744F80020C9
:10343000FFF741F8D220FFF73EF80020FFF73BF8F6
:10344000D920FFF738F80020FFF735F8E020FFF724
:1034500032F80020FFF72FF8F320FFF72CF80020B8
:10346000FFF729F8E120FFF737F81620FFF723F8D8
:103470000020FFF720F81C20FFF71DF80020FFF7C1
:103480001AF82220FFF717F80020FFF714F836206B
:10349000FFF711F80020FFF70EF84520FFF70BF8B3
:1034A0000020FFF708F85220FFF705F80020FFF78B
:1034B00002F86420FEF7FFFF0020FEF7FCFF7A20F1
:1034C000FEF7F9FF0020FEF7F6FF8B20FEF7F3FF73
:1034D0000020FEF7F0FF9920FEF7EDFF0020FEF739
:1034E000EAFFA820FEF7E7FF0020FEF7E4FFB9207F
:1034F000FEF7E1FF0020FEF7DEFFC420FEF7DBFF52
:103500000020FEF7D8FFCA20FEF7D5FF0020FEF707
:10351000D2FFD220FEF7CFFF0020FEF7CCFFD8204D
:10352000FEF7C9FF0020FEF7C6FFE020FEF7C3FF4D
:103530000020FEF7C0FFF320FEF7BDFF0020FEF7DE
:10354000BAFFE220FEF7C8FF0520FEF7B4FF002017
:10355000FEF7B1FF0B20FEF7AEFF0020FEF7ABFF3A
:103560001B20FEF7A8FF0020FEF7A5FF3420FEF782
:10357000A2FF0020FEF79FFF4420FEF79CFF0020E3
:10358000FEF799FF4F20FEF796FF0020FEF793FF0E
:103590006120FEF790FF0020FEF78DFF7920FEF7F7
:1035A0008AFF0020FEF787FF8820FEF784FF0020B7
:1035B000FEF781FF9720FEF77EFF0020FEF77BFFDE
:1035C000A620FEF778FF0020FEF775FFB720FEF774
:1035D00072FF0020FEF76FFFC220FEF76CFF002095
:1035E000FEF769FFC720FEF766FF0020FEF763FFC6
:1035F000D120FEF760FF0020FEF75DFFD620FEF72A
:103600005AFF0020FEF757FFDD20FEF754FF002091
:10361000FEF751FFF320FEF74EFF0020FEF74BFFB1
:10362000E320FEF759FF0520FEF745FF0020FEF7D7
:1036300042FF0A20FEF73FFF0020FEF73CFF1C2060
:10364000FEF739FF0020FEF736FF3320FEF733FF89
:103650000020FEF730FF4420FEF72DFF0020FEF78C
:103660002AFF5020FEF727FF0020FEF724FF6220EC
:10367000FEF721FF0020FEF71EFF7820FEF71BFF5C
:103680000020FEF718FF8820FEF715FF0020FEF748
:1036900012FF9720FEF70FFF0020FEF70CFFA62079
:1036A000FEF709FF0020FEF706FFB720FEF703FF35
:1036B0000020FEF700FFC220FEF7FDFE0020FEF70F
:1036C000FAFEC720FEF7F7FE0020FEF7F4FED12039
:1036D000FEF7F1FE0020FEF7EEFED520FEF7EBFE32
:1036E0000020FEF7E8FEDD20FEF7E5FE0020FEF7F5
:1036F000E2FEF320FEF7DFFE0020FEF7DCFEE42012
:10370000FEF7EAFE0120FEF7D6FE0020FEF7D3FE0C
:103710000120FEF7D0FE0020FEF7CDFE0220FEF7CE
:10372000CAFE0020FEF7C7FE2A20FEF7C4FE0020D6
:10373000FEF7C1FE3C20FEF7BEFE0020FEF7BBFEFA
:103740004B20FEF7B8FE0020FEF7B5FE5D20FEF729
:10375000B2FE0020FEF7AFFE7420FEF7ACFE0020A4
:10376000FEF7A9FE8420FEF7A6FE0020FEF7A3FECA
:103770009320FEF7A0FE0020FEF79DFEA220FEF79C
:103780009AFE0020FEF797FEB320FEF794FE00207D
:10379000FEF791FEBE20FEF78EFE0020FEF78BFEA8
:1037A000C420FEF788FE0020FEF785FECD20FEF740
:1037B00082FE0020FEF77FFED320FEF77CFE002075
:1037C000FEF779FEDD20FEF776FE0020FEF773FEA1
:1037D000F320FEF770FE0020FEF76DFEE520FEF7F9
:1037E0007BFE0020FEF767FE0020FEF764FE00204F
:1037F000FEF761FE0020FEF75EFE0220FEF75BFE94
:103800000020FEF758FE2920FEF755FE0020FEF7A7
:1038100052FE3C20FEF74FFE0020FEF74CFE4B20F0
:10382000FEF749FE0020FEF746FE5D20FEF743FE50
:103830000020FEF740FE7420FEF73DFE0020FEF75C
:103840003AFE8420FEF737FE0020FEF734FE932078
:10385000FEF731FE0020FEF72EFEA220FEF72BFE23
:103860000020FEF728FEB320FEF725FE0020FEF71D
:1038700022FEBE20FEF71FFE0020FEF71CFEC42025
:10388000FEF719FE0020FEF716FECD20FEF713FE10
:103890000020FEF710FED320FEF70DFE0020FEF7FD
:1038A0000AFEDC20FEF707FE0020FEF704FEF320F0
:1038B000FEF701FE0020FEF7FEFDE620FEF70CFEFF
:1038C0001120FEF7F8FD0020FEF7F5FD3420FEF78D
:1038D000F2FD0020FEF7EFFD5620FEF7ECFD002084
:1038E000FEF7E9FD7620FEF7E6FD0020FEF7E3FD9A
:1038F0007720FEF7E0FD0020FEF7DDFD6620FEF7F5
:10390000DAFD0020FEF7D7FD8820FEF7D4FD002069
:10391000FEF7D1FD9920FEF7CEFD0020FEF7CBFD8E
:10392000BB20FEF7C8FD0020FEF7C5FD9920FEF77D
:10393000C2FD0020FEF7BFFD6620FEF7BCFD0020A3
:10394000FEF7B9FD5520FEF7B6FD0020FEF7B3FDEA
:103950005520FEF7B0FD0020FEF7ADFD4520FEF737
:10396000AAFD0020FEF7A7FD4320FEF7A4FD0020DE
:10397000FEF7A1FD4420FEF79EFD0020FEF79BFD13
:10398000E720FEF7A9FD3220FEF795FD0020FEF7A7
:1039900092FD5520FEF78FFD0020FEF78CFD76206E
:1039A000FEF789FD0020FEF786FD6620FEF783FD09
:1039B0000020FEF780FD6720FEF77DFD0020FEF76A
:1039C0007AFD6720FEF777FD0020FEF774FD872063
:1039D000FEF771FD0020FEF76EFD9920FEF76BFDEE
:1039E0000020FEF768FDBB20FEF765FD0020FEF716
:1039F00062FD9920FEF75FFD0020FEF75CFD772059
:103A0000FEF759FD0020FEF756FD4420FEF753FD5A
:103A10000020FEF750FD5620FEF74DFD0020FEF77A
:103A20004AFD2320FEF747FD0020FEF744FD33202A
:103A3000FEF741FD0020FEF73EFD4520FEF73BFD71
:103A40000020FEF738FDE820FEF746FD0020FEF7D7
:103A500032FD0020FEF72FFD9920FEF72CFD0020FF
:103A6000FEF729FD8720FEF726FD0020FEF723FD47
:103A70008820FEF720FD0020FEF71DFD7720FEF7D1
:103A80001AFD0020FEF717FD6620FEF714FD00204A
:103A9000FEF711FD8820FEF70EFD0020FEF70BFD5E
:103AA000AA20FEF708FD0020FEF705FDBB20FEF76B
:103AB00002FD0020FEF7FFFC9920FEF7FCFC002031
:103AC000FEF7F9FC6620FEF7F6FC0020FEF7F3FC9B
:103AD0005520FEF7F0FC0020FEF7EDFC5520FEF728
:103AE000EAFC0020FEF7E7FC4420FEF7E4FC00209F
:103AF000FEF7E1FC4420FEF7DEFC0020FEF7DBFCD5
:103B00005520FEF7D8FC0020FEF7D5FCE920FEF793
:103B1000E3FCAA20FEF7CFFC0020FEF7CCFC00203F
:103B2000FEF7C9FC0020FEF7C6FC0020FEF7D4FC1F
:103B3000AA20FEF7C0FCCF20FEF7CEFC0020FEF747
:103B4000BAFC0020FEF7B7FC0020FEF7B4FC002012
:103B5000FEF7B1FC0020FEF7AEFC0020FEF7ABFC48
:103B60000020FEF7A8FC0020FEF7A5FC0020FEF7D1
:103B7000A2FC0020FEF79FFC0020FEF79CFC00202A
:103B8000FEF799FC0020FEF796FC0020FEF793FC60
:103B90000020FEF790FC0020FEF78DFC0020FEF7D1
:103BA0008AFCF020FEF798FC0020FEF784FC5020F1
:103BB000FEF781FC0020FEF77EFC0020FEF77BFC78
:103BC0000020FEF778FCF320FEF786FC0020FEF7CD
:103BD00072FCF920FEF780FC0620FEF76CFC10203A
:103BE000FEF769FC2920FEF766FC0020FEF763FC67
:103BF0003A20FEF771FC5520FEF75DFC1120FEF720
:103C00006BFC6420FDF7B6FE2920FEF765FC35202D
:103C1000FEF762FC0020FEF74EFC5120FEF75CFC34
:103C2000FF20FEF748FC5320FEF756FC2C20FEF741
:103C300042FC5520FEF750FC8220FEF73CFC2C2075
:103C4000FEF74AFC08BD08B555214FF47040FEF759
:103C500054FCAA214FF20100FEF74FFC52214FF213
:103C60000200FEF74AFC08214FF20300FEF745FC74
:103C700001214FF20400FEF740FC0D214FF43040CB
:103C8000FEF73BFC0D214BF20100FEF736FC0D2147
:103C90004BF20200FEF731FC34214FF43640FEF7C0
:103CA0002CFC34214BF20160FEF727FC34214BF24F
:103CB0000260FEF722FC0D214FF43140FEF71DFC9F
:103CC0000D214BF20110FEF718FC0D214BF20210F2
:103CD000FEF713FC34214FF43740FEF70EFC34217D
:103CE0004BF20170FEF709FC34214BF20270FEF733
:103CF00004FC00214FF43240FEF7FFFB00214BF2A1
:103D00000120FEF7FAFB00214BF20220FEF7F5FB43
:103D100024214FF43840FEF7F0FB24214BF601003C
:103D2000FEF7EBFB24214BF60200FEF7E6FB012138
:103D30004FF43F40FEF7E1FB0F214FF43340FEF715
:103D4000DCFB0F214BF20130FEF7D7FB0F214BF2CA
:103D50000230FEF7D2FB34214FF43940FEF7CDFBA1
:103D600034214BF60110FEF7C8FB34214BF602104C
:103D7000FEF7C3FB08214FF43540FEF7BEFB0821D8
:103D80004BF20150FEF7B9FB08214BF20250FEF74F
:103D9000B4FB03214FF44240FEF7AFFB24214FF464
:103DA0003A40FEF7AAFB24214BF60120FEF7A5FBC3
:103DB00024214BF60220FEF7A0FB00214FF43C40EB
:103DC000FEF79BFB78214BF60140FEF796FB0021A6
:103DD0004BF60240FEF791FB00214FF43D40FEF709
:103DE0008CFB78214BF60150FEF787FB00214BF648
:103DF0000250FEF782FB00214FF43E40FEF77DFBB0
:103E000064214BF60160FEF778FB00214FF451402E
:103E1000FEF773FB33214DF20110FEF76EFB00211C
:103E20004DF20210FEF769FB34214DF20310FEF74C
:103E300064FB00214DF20410FEF75FFB3A214DF2C6
:103E40000510FEF75AFB00214DF20610FEF755FB58
:103E50004A214DF20710FEF750FB00214DF20810E9
:103E6000FEF74BFB5C214DF20910FEF746FB0021EB
:103E70004DF20A10FEF741FB81214DF20B10FEF7C7
:103E80003CFB00214DF20C10FEF737FBA6214DF252
:103E90000D10FEF732FB00214DF20E10FEF72DFB48
:103EA000E5214DF20F10FEF728FB01214DF2101015
:103EB000FEF723FB13214DF21110FEF71EFB01212B
:103EC0004DF21210FEF719FB54214DF21310FEF7BC
:103ED00014FB01214DF21410FEF70FFB82214DF26D
:103EE0001510FEF70AFB01214DF21610FEF705FB37
:103EF000CA214DF21710FEF700FB02214DF21810F7
:103F0000FEF7FBFA00214DF21910FEF7F6FA022136
:103F10004DF21A10FEF7F1FA01214DF21B10FEF7D7
:103F2000ECFA02214DF21C10FEF7E7FA34214DF2B3
:103F30001D10FEF7E2FA02214DF21E10FEF7DDFA27
:103F400067214DF21F10FEF7D8FA02214DF2201022
:103F5000FEF7D3FA84214DF22110FEF7CEFA0221AA
:103F60004DF22210FEF7C9FAA4214DF22310FEF7FC
:103F7000C4FA02214DF22410FEF7BFFAB7214DF228
:103F80002510FEF7BAFA02214DF22610FEF7B5FA17
:103F9000CF214DF22710FEF7B0FA02214DF2281082
:103FA000FEF7ABFADE214DF22910FEF7A6FA022148
:103FB0004DF22A10FEF7A1FAF2214DF22B10FEF776
:103FC0009CFA02214DF22C10FEF797FAFE214DF2D9
:103FD0002D10FEF792FA03214DF22E10FEF78DFA06
:103FE00010214DF22F10FEF788FA03214DF2301008
:103FF000FEF783FA33214DF23110FEF77EFA0321EA
:104000004DF23210FEF779FA6D214DF23310FEF7C2
:1040100074FA00214FF45240FEF76FFA33214DF24B
:104020000120FEF76AFA00214DF20220FEF765FA40
:1040300034214DF20320FEF760FA00214DF20420F6
:10404000FEF75BFA3A214DF20520FEF756FA002101
:104050004DF20620FEF751FA4A214DF20720FEF7F5
:104060004CFA00214DF20820FEF747FA5C214DF290
:104070000920FEF742FA00214DF20A20FEF73DFA30
:1040800081214DF20B20FEF738FA00214DF20C2071
:10409000FEF733FAA6214DF20D20FEF72EFA00218D
:1040A0004DF20E20FEF729FAE5214DF20F20FEF722
:1040B00024FA01214DF21020FEF71FFA13214DF2D0
:1040C0001120FEF71AFA01214DF21220FEF715FA1F
:1040D00054214DF21320FEF710FA01214DF2142065
:1040E000FEF70BFA82214DF21520FEF706FA0121A8
:1040F0004DF21620FEF701FACA214DF21720FEF705
:10410000FCF902214DF21820FEF7F7F900214DF2DB
:104110001920FEF7F2F902214DF21A20FEF7EDF90F
:1041200001214DF21B20FEF7E8F902214DF21C207F
:10413000FEF7E3F934214DF21D20FEF7DEF90221EE
:104140004DF21E20FEF7D9F967214DF21F20FEF730
:10415000D4F902214DF22020FEF7CFF984214DF24F
:104160002120FEF7CAF902214DF22220FEF7C5F9FF
:10417000A4214DF22320FEF7C0F902214DF22420A4
:10418000FEF7BBF9B7214DF22520FEF7B6F9022163
:104190004DF22620FEF7B1F9CF214DF22720FEF790
:1041A000ACF902214DF22820FEF7A7F9DE214DF2ED
:1041B0002920FEF7A2F902214DF22A20FEF79DF9EF
:1041C000F2214DF22B20FEF798F902214DF22C201E
:1041D000FEF793F9FE214DF22D20FEF78EF9032113
:1041E0004DF22E20FEF789F910214DF22F20FEF717
:1041F00084F903214DF23020FEF77FF933214DF28F
:104200003120FEF77AF903214DF23220FEF775F9DD
:104210006D214DF23320FEF770F900214FF4534029
:10422000FEF76BF933214DF20130FEF766F90021FC
:104230004DF20230FEF761F934214DF20330FEF702
:104240005CF900214DF20430FEF757F93A214DF2A6
:104250000530FEF752F900214DF20630FEF74DF918
:104260004A214DF20730FEF748F900214DF208309F
:10427000FEF743F95C214DF20930FEF73EF90021CB
:104280004DF20A30FEF739F981214DF20B30FEF77D
:1042900034F900214DF20C30FEF72FF9A6214DF232
:1042A0000D30FEF72AF900214DF20E30FEF725F908
:1042B000E5214DF20F30FEF720F901214DF21030CB
:1042C000FEF71BF913214DF21130FEF716F901210B
:1042D0004DF21230FEF711F954214DF21330FEF772
:1042E0000CF901214DF21430FEF707F982214DF24D
:1042F0001530FEF702F901214DF21630FEF7FDF8F8
:10430000CA214DF21730FEF7F8F802214DF21830AD
:10431000FEF7F3F800214DF21930FEF7EEF8022116
:104320004DF21A30FEF7E9F801214DF21B30FEF78D
:10433000E4F802214DF21C30FEF7DFF834214DF293
:104340001D30FEF7DAF802214DF21E30FEF7D5F8E7
:1043500067214DF21F30FEF7D0F802214DF22030D8
:10436000FEF7CBF884214DF22130FEF7C6F802218A
:104370004DF22230FEF7C1F8A4214DF22330FEF7B2
:10438000BCF802214DF22430FEF7B7F8B7214DF208
:104390002530FEF7B2F802214DF22630FEF7ADF8D7
:1043A000CF214DF22730FEF7A8F802214DF2283038
:1043B000FEF7A3F8DE214DF22930FEF79EF8022128
:1043C0004DF22A30FEF799F8F2214DF22B30FEF72C
:1043D00094F802214DF22C30FEF78FF8FE214DF2B9
:1043E0002D30FEF78AF803214DF22E30FEF785F8C6
:1043F00010214DF22F30FEF780F803214DF23030BE
:10440000FEF77BF833214DF23130FEF776F80321C9
:104410004DF23230FEF771F86D214DF23330FEF778
:104420006CF800214FF45440FEF767F833214DF249
:104430000140FEF762F800214DF20240FEF75DF800
:1044400034214DF20340FEF758F800214DF20440AC
:10445000FEF753F83A214DF20540FEF74EF80021E1
:104460004DF20640FEF749F84A214DF20740FEF7AB
:1044700044F800214DF20840FEF73FF85C214DF270
:104480000940FEF73AF800214DF20A40FEF735F8F0
:1044900081214DF20B40FEF730F800214DF20C4027
:1044A000FEF72BF8A6214DF20D40FEF726F800216D
:1044B0004DF20E40FEF721F8E5214DF20F40FEF7D8
:1044C0001CF801214DF21040FEF717F813214DF2B0
:1044D0001140FEF712F801214DF21240FEF70DF8DF
:1044E00054214DF21340FEF708F801214DF214401B
:1044F000FEF703F882214DF21540FDF7FEFF012182
:104500004DF21640FDF7F9FFCA214DF21740FDF7B5
:10451000F4FF02214DF21840FDF7EFFF00214DF2AC
:104520001940FDF7EAFF02214DF21A40FDF7E5FFC1
:1045300001214DF21B40FDF7E0FF02214DF21C402E
:10454000FDF7DBFF34214DF21D40FDF7D6FF0221C0
:104550004DF21E40FDF7D1FF67214DF21F40FDF7E0
:10456000CCFF02214DF22040FDF7C7FF84214DF220
:104570002140FDF7C2FF02214DF22240FDF7BDFFB1
:10458000A4214DF22340FDF7B8FF02214DF2244053
:10459000FDF7B3FFB7214DF22540FDF7AEFF022135
:1045A0004DF22640FDF7A9FFCF214DF22740FDF740
:1045B000A4FF02214DF22840FDF79FFFDE214DF2BE
:1045C0002940FDF79AFF02214DF22A40FDF795FFA1
:1045D000F2214DF22B40FDF790FF02214DF22C40CD
:1045E000FDF78BFFFE214DF22D40FDF786FF0321E5
:1045F0004DF22E40FDF781FF10214DF22F40FDF7C7
:104600007CFF03214DF23040FDF777FF33214DF25F
:104610003140FDF772FF03214DF23240FDF76DFF8F
:104620006D214DF23340FDF768FF00214FF45540F6
:10463000FDF763FF33214DF20150FDF75EFF0021CE
:104640004DF20250FDF759FF34214DF20350FDF7B2
:1046500054FF00214DF20450FDF74FFF3A214DF277
:104660000550FDF74AFF00214DF20650FDF745FFCA
:104670004A214DF20750FDF740FF00214DF208504E
:10468000FDF73BFF5C214DF20950FDF736FF00219D
:104690004DF20A50FDF731FF81214DF20B50FDF72D
:1046A0002CFF00214DF20C50FDF727FFA6214DF203
:1046B0000D50FDF722FF00214DF20E50FDF71DFFBA
:1046C000E5214DF20F50FDF718FF01214DF210507A
:1046D000FDF713FF13214DF21150FDF70EFF0121DD
:1046E0004DF21250FDF709FF54214DF21350FDF722
:1046F00004FF01214DF21450FDF7FFFE82214DF21F
:104700001550FDF7FAFE01214DF21650FDF7F5FEAA
:10471000CA214DF21750FDF7F0FE02214DF218505C
:10472000FDF7EBFE00214DF21950FDF7E6FE0221E8
:104730004DF21A50FDF7E1FE01214DF21B50FDF73D
:10474000DCFE02214DF21C50FDF7D7FE34214DF264
:104750001D50FDF7D2FE02214DF21E50FDF7CDFE99
:1047600067214DF21F50FDF7C8FE02214DF2205087
:10477000FDF7C3FE84214DF22150FDF7BEFE02215C
:104780004DF22250FDF7B9FEA4214DF22350FDF762
:10479000B4FE02214DF22450FDF7AFFEB7214DF2D9
:1047A0002550FDF7AAFE02214DF22650FDF7A5FE89
:1047B000CF214DF22750FDF7A0FE02214DF22850E7
:1047C000FDF79BFEDE214DF22950FDF796FE0221FA
:1047D0004DF22A50FDF791FEF2214DF22B50FDF7DC
:1047E0008CFE02214DF22C50FDF787FEFE214DF28A
:1047F0002D50FDF782FE03214DF22E50FDF77DFE78
:1048000010214DF22F50FDF778FE03214DF230506C
:10481000FDF773FE33214DF23150FDF76EFE03219B
:104820004DF23250FDF769FE6D214DF23350FDF728
:1048300064FE00214FF45640FDF75FFE33214DF238
:104840000160FDF75AFE00214DF20260FDF755FEB2
:1048500034214DF20360FDF750FE00214DF204605B
:10486000FDF74BFE3A214DF20560FDF746FE0021B3
:104870004DF20660FDF741FE4A214DF20760FDF75B
:104880003CFE00214DF20860FDF737FE5C214DF241
:104890000960FDF732FE00214DF20A60FDF72DFEA2
:1048A00081214DF20B60FDF728FE00214DF20C60D6
:1048B000FDF723FEA6214DF20D60FDF71EFE00213F
:1048C0004DF20E60FDF719FEE5214DF20F60FDF788
:1048D00014FE01214DF21060FDF70FFE13214DF281
:1048E0001160FDF70AFE01214DF21260FDF705FE91
:1048F00054214DF21360FDF700FE01214DF21460CA
:10490000FDF7FBFD82214DF21560FDF7F6FD01215B
:104910004DF21660FDF7F1FDCA214DF21760FDF76B
:10492000ECFD02214DF21860FDF7E7FD00214DF28C
:104930001960FDF7E2FD02214DF21A60FDF7DDFD81
:1049400001214DF21B60FDF7D8FD02214DF21C60E4
:10495000FDF7D3FD34214DF21D60FDF7CEFD0221A0
:104960004DF21E60FDF7C9FD67214DF21F60FDF796
:10497000C4FD02214DF22060FDF7BFFD84214DF200
:104980002160FDF7BAFD02214DF22260FDF7B5FD71
:10499000A4214DF22360FDF7B0FD02214DF2246009
:1049A000FDF7ABFDB7214DF22560FDF7A6FD022115
:1049B0004DF22660FDF7A1FDCF214DF22760FDF7F6
:1049C0009CFD02214DF22860FDF797FDDE214DF29E
:1049D0002960FDF792FD02214DF22A60FDF78DFD61
:1049E000F2214DF22B60FDF788FD02214DF22C6083
:1049F000FDF783FDFE214DF22D60FDF77EFD0321C5
:104A00004DF22E60FDF779FD10214DF22F60FDF77C
:104A100074FD03214DF23060FDF76FFD33214DF23F
:104A20003160FDF76AFD03214DF23260FDF765FD4F
:104A30006D214DF23360FDF760FD55214FF470405C
:104A4000FDF75BFDAA214FF20100FDF756FD522153
:104A50004FF20200FDF751FD08214FF20300FDF770
:104A60004CFD00214FF20400FDF747FDCC214FF42F
:104A70003140FDF742FD00214BF20110FDF73DFDF5
:104A800005214FF43640FDF738FD70214FF43740D3
:104A9000FDF733FD70214BF20170FDF72EFD012172
:104AA0004FF43840FDF729FD03214BF60100FDF7D7
:104AB00024FD03214BF60200FDF71FFD03214BF6F9
:104AC0000300FDF71AFD02214FF43C40FDF715FDF0
:104AD00000214BF60140FDF710FD00214BF602408E
:104AE000FDF70BFDD0214FF44940FDF706FD0221F3
:104AF0004CF60110FDF701FD50214CF60210FDF7B8
:104B0000FCFC50214CF60310FDF7F7FC50214CF64D
:104B10000410FDF7F2FC00214FF45450FDF7EDFCBA
:104B200055214FF46850FDF7E8FC4FF48850FDF72D
:104B3000D3FC7820FCF7FEFE4FF42450FDF7CCFCAC
:104B400008BD08B5E220FDF7C7FC1D20FDF7B3FC4A
:104B50000220FDF7B0FC0420FDF7ADFC6420FCF75B
:104B6000E9FEE020FDF7B8FC0120FDF7A4FC0A20D7
:104B7000FCF700FFE020FDF7AFFC0320FDF79BFCF6
:104B80000C20FCF7F7FE0120FDF7A6FC0A20FCF73D
:104B9000F1FEE620FDF7A0FC2F20FDF78CFCFF20A6
:104BA000FDF789FCFF20FDF786FCB020FDF794FCA3
:104BB0002020FDF780FC0020FDF77DFC0320FDF7A1
:104BC0007AFC40F21F30FDF776FC0120FDF773FC04
:104BD00040F2DF10FDF76FFC0020FDF76CFCB42005
:104BE000FDF77AFC0420FDF766FC40F21F40FDF75C
:104BF00062FC0020FDF75FFC2E20FDF75CFC00202E
:104C0000FDF759FC0020FDF756FC0020FDF753FC92
:104C10000020FDF750FCB620FDF75EFC0220FDF7FA
:104C20004AFC4FF40370FDF746FC0020FDF743FCFF
:104C30001720FDF740FC1520FDF73DFC0020FDF797
:104C40003AFC0020FDF737FCF020FDF745FC03207F
:104C5000FDF731FC2920FDF73FFCD020FDF73CFC9F
:104C60000020FDF728FCBE20FDF736FC0520FDF7EF
:104C700022FCFE20FDF71FFC0120FDF71CFC00209C
:104C8000FDF719FC0020FDF716FC0020FDF713FCD2
:104C9000B820FDF721FC0320FDF70DFC0120FDF7F6
:104CA0000AFCBA20FDF718FC0120FDF704FC08BD42
:104CB00038B505460A4B1A885C8802FB04F40021CB
:104CC0000846FDF72BFCFDF71FFC002304E04FF026
:104CD000D842A2F880500133A342F8D338BD00BFB8
:104CE000100C00202DE9F04198B000240094754B81
:104CF0001A6B42F040021A631A6B02F040020092F3
:104D0000009A01941A6B42F008021A631A6B02F0BF
:104D100008020192019A02941A6B42F008021A6387
:104D20001A6B02F008020292029A03941A6B42F084
:104D300040021A631A6B02F040020392039A049431
:104D40001A6B42F002021A631B6B03F00203049316
:104D5000049B4FF480551395022314930127159754
:104D600016930C23179313A9574802F037F9202301
:104D70001393DFF8688113A9404602F02FF910263B
:104D8000139613A9404602F029F9139513A94F4829
:104D900002F024F94FF400431393149713A94C48DD
:104DA00002F01CF94B484FF02043036003F5827377
:104DB000436006238360C46046618461C4614462C9
:104DC0008562C4624FF480430363446384630F23AA
:104DD0000C930D943C230E9312940894092305938D
:104DE000069407930B9405AA0CA902F064FD3220E7
:104DF000FCF7C0FDD320FDF76FFBFDF74FFB364CF2
:104E0000A080FDF74BFBA080FDF748FBA0800002CF
:104E1000A080FDF743FBA388184380B2A08049F22D
:104E2000413398425CD12C4B9B8847F28972934264
:104E300000F0E08049F24132934200F0DE8045F21A
:104E40001032934200F0DC8045F21052934200F0A1
:104E5000DA8041F66312934200F0D8801E4B9B88A3
:104E600049F24132934207D041F66312934203D094
:104E700047F28972934209D103230593079315489A
:104E8000036B826805A9406803F046FB124B9B88C0
:104E900045F21032934200F0BF8045F21052934227
:104EA00000F0BA800020FDF7DFFC01224FF4004142
:104EB000074802F08CF94FF6FF70FFF7F9FE18B0C3
:104EC000BDE8F081003802400018024000140240A2
:104ED00000040240C00B0020100C0020000C024017
:104EE0000420FDF7F9FAFDF7D9FAA080FDF7D6FA0C
:104EF000A080FDF7D3FAA0800002A080FDF7CEFAD3
:104F0000A388184380B2A08048F2525398426DD0D3
:104F1000474B9A8847F289739A4284D0D420FDF790
:104F2000DBFAFDF7BBFA424CA080FDF7B7FAA08090
:104F3000FDF7B4FAA0800002A080FDF7AFFAA388C5
:104F4000184380B2A08045F2103398423FF46BAF13
:104F500055214FF47040FDF7D0FAAA214FF201001D
:104F6000FDF7CBFA52214FF20200FDF7C6FA0821F5
:104F70004FF20300FDF7C1FA01214FF20400FDF7E3
:104F8000BCFA4FF44540FDF7A7FAFDF787FAA08079
:104F90000002A0804CF20150FDF79EFAFDF77EFA68
:104FA000A3881843A0800520FCF7E4FCA28845F202
:104FB00010539A423FF437AFA120FDF78DFAFDF769
:104FC0006DFAA080FDF76AFAA0800002A080FDF7CC
:104FD00065FAA38803439BB2A38045F261729342B2
:104FE0007FF421AF41F66312A2801CE747F2897279
:104FF000A2808DE7FDF7C4FC30E7FDF795FD2DE7B6
:10500000FDF7A8FE2AE7FEF71EFE27E7FFF799FD4A
:105010006420FDF701FC21E702230593079305486F
:10502000036B826805A9406803F076FA3AE700BF8F
:10503000100C0020C00B00202DE9F04107460E4661
:105040009846069D141AA4B20134A4B20AE0ABB289
:105050004FF0D84CACF88030013292B2A242F6D375
:105060000136B6B2464507D831463846FDF756FAFE
:10507000FDF74AFA0022F1E7BDE8F0812DE9F84397
:1050800081468846089E141AA4B20134A4B25F1A5D
:10509000BFB20137BFB200250DE004FB053236F880
:1050A00012104FF0D842A2F8801001339BB2A342F5
:1050B000F3D30135ADB2BD4209D205EB080189B287
:1050C0004846FDF72BFAFDF71FFA0023EFE7BDE88E
:1050D000F8832DE9F04F85B0BDF838400194804643
:1050E000A2EB000A8946A3EB010BBAF1000F0DDD1C
:1050F00001220292BBF1000F14DD01230393DA4574
:105100001CDD564600252F462C461BE0BAF1000F49
:1051100005D0A0EB020A4FF0FF320292EAE7CDF889
:1051200008A0E7E7BBF1000F05D0A1EB030B4FF0A0
:10513000FF330393E3E7CDF80CB0E0E75E46E1E729
:105140000134A4B2731C9C4213DC019A1FFA89F14A
:105150001FFA88F0FDF754FB57445D44BE4202DA63
:10516000BF1B029B9844AE42EADAAD1B039B9944F5
:10517000E6E705B0BDE8F08F2DE9F04F87B0814636
:1051800088461E4601925200C2F103030293002793
:1051900008E0019ABB1A9B000A3302991944029154
:1051A000531E0193019B9F4253DCBDB205EB090BDB
:1051B0001FFA8BFBBDF80440A8EB04039BB23246F8
:1051C000039319465846FDF71BFB04EB090A1FFA27
:1051D0008AFAA8EB05039AB21046324604900146BB
:1051E0005046FDF70DFB05EB08039AB21046324618
:1051F000059001465046FDF703FB04EB080A1FFA31
:105200008AFA324651465846FDF7FAFAA9EB0505E7
:10521000ADB2324651462846FDF7F2FAA9EB040436
:10522000A4B2324605992046FDF7EAFA32460399C0
:105230002846FDF7E5FA324604992046FDF7E0FAE4
:105240000137029A002AA4DABB0006331A440292FC
:10525000A8E707B0BDE8F08F2DE9F04F85B0824692
:1052600088461F469DF838B0BDF83C30019317F0D2
:10527000070318BF012303EBD703790811FB03F3DE
:10528000DBB20293A2F12003DBB2A7F10C02142AD5
:105290005ED8DFE802F00B5D5D5D155D5D5D5D5D17
:1052A0005D5D1A5D5D5D5D5D5D5D210003EB43034A
:1052B000294A02EB8303039344464FF000093FE081
:1052C000264A02EB03130393F6E703EBC303244AD6
:1052D00002EB83030393EFE7224A02EB831303936A
:1052E000EAE7019A21465046FDF78AFA6D00EDB2D1
:1052F0000134A4B21C4B5B88A34229D9A4EB080358
:105300009F4210D00136F6B2072E15D815F0800F47
:10531000E7D1BBF1000FE9D1144B1A682146504682
:10532000FDF76EFAE2E70AF1010A1FFA8AFA0E4B5C
:105330001B8853450CD9444609F101095FFA89F9E4
:10534000029B994504D2039B13F809500026DBE722
:1053500005B0BDE8F08F00BFECB3030860B80308E8
:1053600050BE0308ACCB0308100C00200400002042
:105370002DE9F04F83B082460D469DF830700D9EAA
:10538000BDF838B002441FFA82F90B441FFA83F8C3
:1053900004460EE0454519D2CDF804B00023009331
:1053A0003B4629462046FFF757FF04EB5704A4B2BB
:1053B00001363278A2F12003DBB25E2B06D84C45D1
:1053C000E8D35FFA8AF43D44ADB2E3E703B0BDE849
:1053D000F08F72B6FEE7000000B595B030220021D4
:1053E00008A82EF0F1F90023039304930593069384
:1053F000079301931F4A116C41F080511164126CA4
:1054000002F080520192019A02931B4A116841F402
:1054100080411160126802F480420292029A0222D4
:10542000089201210B9110210C910E920F930823E9
:105430001093A823119312920723139308A801F045
:10544000CDFE98B90F230393022304930023059301
:105450004FF4A05306934FF480530793052103A8FC
:1054600002F00AF920B915B05DF804FBFFF7B1FFAF
:10547000FFF7AFFF0038024000700040000000005E
:1054800038B501F03BF9FFF7A7FFFCF711FDFCF77A
:1054900091FA00F0F7FAFCF71FFBFCF775F800F043
:1054A000B9FA00F0CBF901F07DF8334802F05EFA6A
:1054B000324802F05BFA324801F012FAA820FCF7F9
:1054C0002FFAFFF70FFC0120FDF7CEF92D4B1B68DB
:1054D000984706F0CBFB03F0E5F903F041FA2A4CBC
:1054E000204603F0D7F8204603F0D0F800221146FA
:1054F000E0681DF09DFF054636E0214801F098FA6E
:10550000FAF7C0FF1AA3D3E90023FBF735F800220E
:105510001E4BFBF731F8FBF7E9FA1D4B03EB840355
:1055200018600134B4F5806FE7DB002413E0184BFA
:1055300003EB8403D3ED007AB2EE047A67EE877A48
:10554000FDEEE77A17EE903A1AB229460E4BD8686C
:105550001DF0C0FF0134B4F5806FE8DB24F07CF966
:10556000084B5B68012098470024DBE7AFF300801D
:105570006666666666660A408C1C0020441C002035
:10558000BC0A00200C000020201C00200000303F3E
:10559000200C002008B50220FCF7CCF908BD000063
:1055A00010B5104C01224FF40071204601F00FFE9F
:1055B00001224FF48071204601F009FEFFF7EAFF57
:1055C00000224FF40071204601F001FEFFF7E2FFD8
:1055D00000224FF48071204601F0F9FDFFF7DAFF59
:1055E00010BD00BF0004024010B50D4C00224FF466
:1055F0000071204601F0EBFDFFF7CCFF01224FF4D4
:105600008071204601F0E3FDFFF7C4FF01224FF453
:105610000071204601F0DBFDFFF7BCFF10BD00BFAD
:105620000004024010B588B000210191164B1A6B9E
:1056300042F002021A631A6B02F002020192019A0E
:1056400002911A6B42F002021A631B6B03F0020311
:105650000293029B4FF480730393012304930593F9
:1056600003230693094C03A9204601F0B7FC4FF42D
:10567000007303931123049303A9204601F0AEFCA9
:10568000FFF7B2FF08B010BD00380240000402402E
:1056900038B5154C01224FF40071204601F097FDFA
:1056A000FFF778FF01224FF48071204601F08FFD53
:1056B000FFF770FF00244FF400710B4801F080FDEC
:1056C000054630B10134E4B2FA2CF4D9FFF78CFF6F
:1056D000012500224FF48071034801F078FDFFF7A7
:1056E00059FF284638BD00BF0004024010B5114CD8
:1056F00000224FF40071204601F069FDFFF74AFFD8
:1057000001224FF48071204601F061FDFFF742FF56
:1057100000224FF48071204601F059FDFFF73AFF57
:1057200001224FF40071204601F051FDFFF732FFD6
:1057300010BD00BF0004024010B50D4C01224FF413
:105740000071204601F043FDFFF724FF01224FF4D2
:105750008071204601F03BFDFFF71CFF00224FF453
:105760008071204601F033FDFFF714FF10BD00BF2C
:105770000004024070B5044600251AE000224FF4F0
:105780000071154801F023FDFFF704FF124E0122BE
:105790004FF48071304601F01AFDFFF7FBFE002246
:1057A0004FF48071304601F012FD6400E4B201351F
:1057B000EDB2072D09D814F0800FDFD001224FF48D
:1057C0000071054801F003FDDEE701224FF400718E
:1057D000014801F0FCFC70BD00040240F8B507462A
:1057E0000024254609E000224FF48071124801F0A0
:1057F000EEFCFFF7CFFE0135EDB2072D14D86400A3
:10580000E4B20D4E01224FF48071304601F0DFFC0E
:10581000FFF7C0FE4FF40071304601F0D1FC0028C4
:10582000E1D00134E4B2DEE71FB9FFF785FF20467F
:10583000F8BDFFF75BFFFAE70004024008B5054832
:10584000054B036001F0EEFF00B908BDFFF7C1FD95
:10585000FBE700BF301C00200008065002680E4B1A
:105860009A4200D0704700B583B0002101910B4BE4
:105870005A6B42F040025A635B6B03F040030193A2
:10588000019B0A46502001F05BFA502001F090FA8B
:1058900003B05DF804FB00BF00080650003802406A
:1058A00082B0002100910B4B5A6C42F480425A6442
:1058B0005A6C02F480420092009A01911A6C42F0F4
:1058C00080521A641B6C03F080530193019B02B059
:1058D000704700BF00380240FEE7FEE7FEE7FEE744
:1058E000FEE7704708B500F023FF08BD08B5024881
:1058F00001F0A4F808BD00BFBC0A002008B50248AA
:1059000002F07CF808BD00BF8C1C002008B50248DE
:1059100002F0F4FC08BD00BFD41C002008B502480A
:1059200001F099FF08BD00BF301C002008B50268D7
:10593000034B9A4200D008BD012021F0E7FAFAE7B4
:10594000000400400120704708B52DF083FE1623A7
:1059500003604FF0FF3008BD08B54FF0FF31FFF78F
:10596000F3FFFEE770B50C461646002506E0AFF3E0
:105970000080214601F8010B01350C46B542F6DBEB
:10598000304670BD70B50C461646002504E014F88C
:10599000010BAFF300800135B542F8DB304670BD36
:1059A0004FF0FF3070474FF400534B6000207047BA
:1059B000012070470020704710B503460C4A0D497E
:1059C0000D48006840B10C4800680344521A9342E5
:1059D00006D8094A136010BD0748084C0460F2E776
:1059E0002DF038FE0C2303604FF0FF30F3E700BFCB
:1059F0000000022000040000401C00200060012084
:105A0000034AD2F8883043F47003C2F888307047F4
:105A100000ED00E000B587B00023029303930493E8
:105A200005930093019316484FF080420260532281
:105A3000426083600922C26003618023836102F0B7
:105A4000FFF898B94FF48053029302A90C4802F072
:105A500030F970B920230093002301936946084868
:105A600002F02CFA40B907B05DF804FBFFF7B1FC77
:105A7000E8E7FFF7AEFCEDE7FFF7ABFCF3E700BFAD
:105A8000441C002000B58DB00023089309930A93AD
:105A90000B93039304930593069307930193029347
:105AA0001A481B4A02605322426083600922C26086
:105AB0000361836102F0C4F8D8B94FF480530893AE
:105AC00008A9124802F0F5F8B0B900230393049333
:105AD00003A90E4802F0C8F988B9202301930023D6
:105AE000029301A9094802F0E9F958B90DB05DF82F
:105AF00004FBFFF76EFCE0E7FFF76BFCE5E7FFF761
:105B000068FCEAE7FFF765FCF0E700BF8C1C0020AB
